:020000040800F2
:1000000000000120591C0008F51A0008FD1A00081C
:10001000051B00080D1B0008151B00080000000050
:100020000000000000000000000000001D1B000890
:100030002B1B000800000000391B0008471B0008AC
:10004000A91C0008A91C0008A91C0008A91C00087C
:10005000A91C0008A91C0008551B0008A91C0008C1
:10006000A91C0008A91C0008A91C0008651B0008A1
:10007000A91C0008A91C0008A91C0008A91C00084C
:10008000791B00088D1B0008A91C00080000000057
:10009000000000000000000000000000A91C000893
:1000A000A91C0008A11B0008A91C0008A91C000825
:1000B000A91C0008BD1B0008D11B0008A91C0008D2
:1000C000A91C0008A91C0008A91C0008A91C0008FC
:1000D000A91C0008A91C0008E51B0008000000007E
:1000E000A91C0008A91C0008A91C000800000000A9
:1000F000000000000000000000000000A91C000833
:1001000000000000A91C0008A91C0008A91C000888
:1001100000000000000000000000000000000000DF
:10012000F91B00080D1C0008A91C0008A91C0008E8
:10013000A91C0008000000000000000000000000F2
:10014000000000000000000000000000A91C0008E2
:10015000A91C0008A91C0008A91C0008211C0008F3
:10016000A91C0008A91C00080000000000000000F5
:10017000000000000000000000000000000000007F
:1001800000000000A91C00080000000000000000A2
:04019000A91C00089E
:1001940010B5054C237833B9044B13B10448AFF3BD
:1001A40000800123237010BD100000200000000017
:1001B4006877000808B5034B1BB103490348AFF344
:1001C400008008BD000000001400002068770008CB
:1001D40053B94AB9002908BF00281CBF4FF0FF31AA
:1001E4004FF0FF3000F088B9ADF1080C6DE904CE92
:1001F40000F006F8DDF804E0DDE9022304B07047FE
:100204002DE9F047089D8E4604468846002B4AD1C6
:100214008A42174662D9B2FA82F64EB1C6F1200379
:1002240001FA06F820FA03F3B74043EA0808B44099
:100234004FEA174E1FFA87FCB8FBFEF1230C0EFBA6
:10024400118843EA084301FB0CF29A4209D9FB18CE
:1002540001F1FF3080F0EA809A4240F2E7800239EF
:100264003B449A1AA3B2B2FBFEF00EFB102243EAFF
:10027400024300FB0CFC9C4509D9FB1800F1FF323A
:1002840080F0D6809C4540F2D3803B44023840EA5B
:100294000140A3EB0C0300211DB1F3400022C5E98A
:1002A4000032BDE8F0878B4205D90DB1C5E90001E4
:1002B40000210846F5E7B3FA83F1002946D17345D6
:1002C40002D3824200F20581841A6EEB03020120FC
:1002D4009046002DE5D0C5E90048E2E7002A00F089
:1002E4009080B2FA82F6002E40F0A4808A1A030CA1
:1002F4004FEA174E80B2BCB20121B2FBFEFC0EFBEA
:100304001C2243EA024304FB0CF29A4207D9FB186D
:100314000CF1FF3802D29A4200F2E080C4469B1AE4
:10032400B3FBFEF20EFB123340EA034302FB04F478
:100334009C4207D9FB1802F1FF3002D29C4200F222
:10034400CA8002461B1B42EA0C40A5E7C1F1200605
:100354008B4022FA06F71F430EFA01F420FA06F343
:100364002EFA06FE4FEA1749234300FA01F81FFA52
:1003740087FCBEFBF9F01C0C09FB10EE44EA0E44AA
:1003840000FB0CFEA64502FA01F209D93C1900F162
:10039400FF3A80F09C80A64540F2998002383C44A4
:1003A400A4EB0E041FFA83FEB4FBF9F309FB134418
:1003B4004EEA044403FB0CFCA44508D93C1903F1A0
:1003C400FF3E80F08280A4457FD9023B3C4443EA4F
:1003D4000040A4EB0C04A0FB02EC64457346E14628
:1003E40062D35FD05DB1B8EB030264EB090404FA95
:1003F40006F622FA01F31E43CC40C5E9006400214D
:100404004FE7B1FBF2FC010C41EA0E4180B240EA35
:1004140001423B4638463C46B846BE462026B1FB20
:10042400F7F1A2EB080241EA0C4166E7014618E73E
:1004340010462CE7C6F120022EFA02F3B740B14071
:1004440020FA02F24FEA174E0A43B3FBFEF8BCB29D
:100454000EFB1833110C41EA034108FB04F9B040C8
:1004640089454FEA104380B23ED9791808F1FF3C20
:1004740001D289451FD8A1EB0901B1FBFEF909FBA3
:1004840004F80EFB191192B242EA0142424529D204
:10049400BA1809F1FF31C4D24245C2D2A9F102010E
:1004A4003A44BEE7F0459DD2BEEB02036CEB070C69
:1004B4000138E14696E7A7EB09094944A8F1020C83
:1004C400B1FBFEF909FB04F8DBE773467FE750460E
:1004D40066E70846FDE63B44023A33E7ACF1020C1A
:1004E4003B441CE749469CE7A1EB0901C446B1FB28
:1004F400FEF909FB04F8C4E7704700BF80B586B075
:1005040004AF0023FB710A23029301230193FB1D13
:10051400009301237F22D2215A4803F097F98023C4
:10052400FB710A23029301230193FB1D0093012312
:100534000622D221534803F089F9322001F0F6FB58
:100544000123FB710A23029301230193FB1D0093F2
:1005540001230622D2214B4803F078F9142001F03C
:10056400E5FB0023FB710A23029301230193FB1D86
:10057400009301230322D221424803F067F90223A6
:10058400FB710A23029301230193FB1D00930123B2
:100594000F22D2213B4803F059F90123FB710A23AE
:1005A400029301230193FB1D009301231122D22105
:1005B400344803F04BF92023FB710A2302930123EF
:1005C4000193FB1D009301237F22D2212D4803F0C8
:1005D4003DF90123FB710A23029301230193FB1DBF
:1005E400009301231422D221264803F02FF900237B
:1005F400FB710A23029301230193FB1D0093012342
:100604007F22D2211F4803F021F93023BB710A2332
:10061400029301230193BB1D009301237F22D22166
:10062400184803F013F90023BB710A230293012332
:100634000193BB1D009301237F22D221114803F0B3
:1006440005F90223BB710A23029301230193BB1D05
:10065400009301230F22D2210A4803F0F7F808235C
:100664007B710A230293012301937B1D00930123D1
:1006740031221821034803F0E9F800BF0837BD46CA
:1006840080BD00BFD400002080B588B004AF05232E
:1006940002930C2301933B1D009301232D22D221AD
:1006A400224803F0CDF90346002B3BD13B791BB222
:1006B4001B021AB27B791BB213431AB21C4B1A8069
:1006C400BB791BB21B021AB2FB791BB213431AB2D9
:1006D400184B1A803B7A1BB21B021AB27B7A1BB2EC
:1006E40013431AB2144B1A80BB7A1BB21B021AB200
:1006F400FB7A1BB213431AB2104B1A803B7B1BB21A
:100704001B021AB27B7B1BB213431AB20C4B1A8026
:10071400BB7B1BB21B021AB2FB7B1BB213431AB284
:10072400084B1A8000BF1037BD4680BDD40000209E
:10073400DE050020E0050020E2050020E40500209D
:10074400E6050020E805002080B588B004AF012349
:10075400029301230193FB1D00930123102218210E
:10076400244803F06DF90346002B3ED1FB7903F0D6
:100774000103002B39D0022302930623019307F1CE
:10078400080300930123112218211A4803F058F991
:100794000346002B1DD17B7A1BB21B021AB23B7A93
:1007A4001BB213431AB2144B1A80FB7A1BB21B02FE
:1007B4001AB2BB7A1BB213431AB2104B1A807B7B5A
:1007C4001BB21B021AB23B7B1BB213431AB20C4B73
:1007D4001A800123029301230193BB1D009301237B
:1007E40018221821034803F02BF900BF1037BD4627
:1007F40080BD00BFD4000020EA050020EC050020E5
:10080400EE05002080B582B000AF01F04DFA00F093
:10081400BFF8C82001F08AFA00F060FB00F010FB7A
:1008240000F03EFA00F05AFA464802F0DFFF0A20D0
:1008340001F07CFA00F016FAFFF760FE00F012F9FE
:1008440000F082FA00F068FA00F0BCFA00F09AFABC
:1008540000F0B6F902223C493C4801F0CFFA4FF4CB
:1008640080723B493B4805F0B9FD3B4B01221A70AD
:100874000B223A493A4805F0B1FD3A4804F0A0FB8E
:10088400394804F0F7FB3C21384804F005FE3C21CC
:10089400374804F001FE0021364804F0A7FC042187
:1008A400344804F0A3FC01F035FA7860324B1B683D
:1008B4007A68D31AB3F5FA7F07D32F4A7B6813609B
:1008C4004FF400512D4802F01AFE2D4B1B78DBB279
:1008D400012B13D12A4B00221A70FFF7D5FE1E4BB1
:1008E4001B78DBB2002B09D01B4B00221A7000F0DE
:1008F4000BFC312223491A4805F0F4FC224B1B68F7
:100904007A68D31A092B06D91F4A7B681360FFF74C
:100914001BFF00F07FFC1D4B1B687A68D31AB3F5EC
:10092400FA7FC0D9194A7B6813600B4B1B78DBB282
:10093400002BB8D10A4805F076FD074B01221A7046
:10094400B1E700BFD4000020A80400202C00002040
:10095400AC0400203803002000000020140600200E
:10096400F00200201802002060020020D0010020C4
:10097400A802002088010020A404002000080240EE
:10098400F9050020AC050020A00400202806002062
:1009940080B594B000AF07F120033022002118463F
:1009A40006F0B4FE07F10C0300221A605A609A6044
:1009B400DA601A610023BB60284B1B6C274A43F0A2
:1009C40080531364254B1B6C03F08053BB60BB68DE
:1009D40000237B60224B1B6823F44043204A43F4EA
:1009E400004313601E4B1B6803F440437B607B6829
:1009F40001233B624FF480337B620223BB634FF4D9
:100A04008003FB6319233B64A8237B640223BB6438
:100A14000423FB6407F12003184603F0F7FD0346A3
:100A2400002B01D000F008FC0F23FB6002233B6184
:100A340000237B614FF48053BB610023FB6107F10A
:100A44000C030221184604F059F80346002B01D088
:100A540000F0F2FB00BF5037BD4680BD00380240B5
:100A64000070004080B596B000AF07F14803002243
:100A74001A605A609A60DA6007F1400300221A6033
:100A84005A6007F1240300221A605A609A60DA60FF
:100A94001A615A619A613B1D20220021184606F012
:100AA40035FE454B454A1A60434B00225A60424B7F
:100AB40000229A60404B42F2CF02DA603E4B0022A1
:100AC4001A613D4B00225A613B4B00229A613A481D
:100AD40004F026FA0346002B01D000F0ADFB4FF4DE
:100AE4008053BB6407F148031946334804F014FFEC
:100AF4000346002B01D000F09FFB2F4804F01CFBA1
:100B04000346002B01D000F097FB60237B62002397
:100B1400BB620023FB6200237B6300233B6300234F
:100B2400BB630023FB6307F1240300221946224818
:100B340004F030FE0346002B01D000F07DFB07F1EA
:100B44002403042219461C4804F024FE0346002B07
:100B540001D000F071FB00233B6400237B6407F1A8
:100B640040031946144805F099FA0346002B01D0B6
:100B740000F062FB00237B600023BB600023FB606A
:100B840000233B6100237B614FF40053BB614FF4AE
:100B940080433B623B1D1946074805F0EDFA0346C6
:100BA400002B01D000F048FB034800F0CDFD00BF4E
:100BB4005837BD4680BD00BF8801002000000140B9
:100BC40080B584B000AF3B4600221A605A609A6038
:100BD400DA60214B214A1A601F4B4FF480325A606D
:100BE4001D4B00229A601C4B01221A611A4B0122F0
:100BF4001A76194B002283F82020174B0022DA6260
:100C0400154B174A9A62144B0022DA60124B0222E7
:100C1400DA61114B002283F830200F4B01225A6114
:100C24000D4801F0A7F804233B6001237B600423F3
:100C3400BB603B461946084801F0F2F905233B60C6
:100C440002237B603B461946034801F0E9F900BFE3
:100C54001037BD4680BD00BF2C000020002001409D
:100C64000100000F80B500AF0A4B0B4A1A60094B14
:100C74000A4A5A60074B00229A60064B0022DA6047
:100C8400044B4FF480421A61024802F06BFC00BF2F
:100C940080BD00BFD400002000540040801A06002C
:100CA40080B500AF0B4B0C4A1A600A4B4FF4E1229B
:100CB4005A60084B00229A60064B0022DA60054B0A
:100CC40000221A61034B0C225A61024805F0BAFA59
:100CD40000BF80BDF00200200044004080B500AF9A
:100CE4000B4B0C4A1A600A4B4FF416425A60084BDD
:100CF40000229A60064B0022DA60054B00221A613A
:100D0400034B0C225A61024805F09CFA00BF80BDD7
:100D1400380300200014014080B500AF084B094A95
:100D24001A60074B53225A60054B00229A60044B09
:100D34004FF6FF72DA60024804F0F2F800BF80BD9B
:100D4400180200200004004080B58AB000AF3B1DAB
:100D540024220021184606F0D9FC094B4FF08042AA
:100D64001A60074B4FF0FF32DA6003237B603B1DB0
:100D74001946034804F0EAFA00BF2837BD4680BD8F
:100D8400D001002080B58AB000AF3B1D2422002191
:100D9400184606F0BBFC094B094A1A60074B4FF092
:100DA400FF32DA6003237B603B1D1946034804F0DD
:100DB400CDFA00BF2837BD4680BD00BFA802002081
:100DC400000C004080B582B000AF00237B60194B5B
:100DD4001B6C184A43F004031364164B1B6C03F09A
:100DE40004037B607B68144B144A1A60124B532231
:100DF4005A60114B40F2E732DA600F4B00229A60DE
:100E04000D4B00221A610C4B00229A610A4804F02F
:100E140087F80346002B01D000F00EFA00220221CD
:100E24001E2001F055FC1E2001F06EFC00BF0837A7
:100E3400BD4680BD0038024060020020000800402A
:100E440080B582B000AF00237B60234B1B6B224A2A
:100E540043F400131363204B1B6B03F400137B60F8
:100E64007B6800233B601C4B1B6B1B4A43F48003D1
:100E74001363194B1B6B03F480033B603B68002234
:100E840000210B2001F024FC0B2001F03DFC00228A
:100E94000021102001F01CFC102001F035FC002280
:100EA4000021112001F014FC112001F02DFC00227E
:100EB4000021382001F00CFC382001F025FC002230
:100EC4000021392001F004FC392001F01DFC00BF91
:100ED4000837BD4680BD00BF0038024080B588B0E9
:100EE40000AF07F10C0300221A605A609A60DA60BE
:100EF4001A610023BB60334B1B6B324A43F004037B
:100F04001363304B1B6B03F00403BB60BB6800230B
:100F14007B602C4B1B6B2B4A43F002031363294B5E
:100F24001B6B03F002037B607B6800233B60254B53
:100F34001B6B244A43F001031363224B1B6B03F026
:100F440001033B603B6800224FF400511E4802F04D
:100F5400BDFA4FF40053FB6001233B6100237B6126
:100F64000023BB6107F10C031946174802F046F849
:100F74000123FB604FF488133B6100237B6107F17D
:100F84000C031946114802F039F80022002106200A
:100F940001F09EFB062001F0B7FB4FF44073FB60A9
:100FA40002233B6100237B610323BB610123FB61BB
:100FB40007F10C031946064802F020F800BF203759
:100FC400BD4680BD003802400008024000040240D3
:100FD4000000024080B485B000AF78600B467B808F
:100FE4000023FB730023BB8109E0BB897A681344A7
:100FF4001A78FB7B1344FB73BB890133BB81BA8929
:101004007B889A42F1D3FB7B18461437BD465DF8C2
:10101400047B704780B483B000AF0346FB80FB8839
:10102400012B13D10C4B1B685B6A0C4A13600C4BED
:101034001B685B6A1A460B4B1A600B4B1B685B6A96
:101044001A460A4B1A600A4B01221A7000BF0C3769
:10105400BD465DF8047B704718020020FC050020A3
:10106400D001002004060020A80200200806002069
:10107400F905002080B483B000AF78607B681B68FA
:10108400054A934202D1054B01221A7000BF0C3766
:10109400BD465DF8047B704700440040000000201A
:1010A40080B584B000AF78607B681B68124A9342B5
:1010B4001DD1124BFB60FB681B889BB24BF6BB3205
:1010C400934214D10A210D48FFF784FF0346FB72B3
:1010D400FB689B7AFA7A9A4209D1FB68D3F802300A
:1010E400074A1360FB68D3F80630064A136000BF52
:1010F4001037BD4680BD00BF0044004014060020E8
:101104000C0600201006002080B400AF2F4B4AF6D6
:10111400AA221A802E4B1B682C4AC2F802302D4B8F
:101124001B682A4AC2F806302B4B1B68274AD36136
:101134002A4B1B68254A1362294B1B881AB2234B7E
:101144005A81284B1B881AB2204B9A81264B1B8844
:101154001AB21E4BDA81254B1B881AB21B4B1A821A
:10116400234B1B881AB2194B5A82224B1B881AB282
:10117400164B9A82204B1B881AB2144BDA821F4BEF
:101184001B881AB2114B1A831D4B1B881AB20F4BC2
:101194005A831C4B1A880D4BA3F82D20194B5A88DF
:1011A4000A4BA3F82F20184B1B68084A5362174BAD
:1011B4001B68064A9362164B1B78DAB2034B83F81A
:1011C4002C2000BFBD465DF8047B7047AC050020B1
:1011D400FC0500200006002004060020080600206C
:1011E400DE050020E0050020E2050020E4050020E3
:1011F400E6050020E8050020EA050020EC050020B3
:10120400EE050020A8040020F0050020F4050020CD
:10121400F805002080B400AF054B1B78242B02D1C5
:10122400044B01221A7000BFBD465DF8047B704771
:10123400AC040020F805002080B400AF72B600BFF3
:1012440000BFFDE780B588B000AF78607B681B689D
:10125400244A934201D100F049FD7B681B68224A6D
:1012640093423BD1214B1B685B6AFB61204B1B689B
:101274005B6ABB611F4B1B681A46FB699B1A7B6147
:101284001D4B1B681A46BB699B1A3B617B6907EEC1
:10129400903AF8EEE77AC7ED037A3B6907EE903AA5
:1012A400F8EEE77AC7ED027AFB69124A1360BB696C
:1012B400114A1360114BD3ED007A114B1B68FCEEFD
:1012C400E77A17EE902A5A630E4BD3ED007A0C4B53
:1012D4001B68FCEEE77A17EE902A9A6300BF20376A
:1012E400BD4680BD0044014000080040D0010020FC
:1012F400A802002020060020240600200C0600205E
:10130400880100201006002080B483B000AF0023C1
:101314007B60104B5B6C0F4A43F4804353640D4B6A
:101324005B6C03F480437B607B6800233B60094B68
:101334001B6C084A43F080531364064B1B6C03F088
:1013440080533B603B6800BF0C37BD465DF8047BAF
:10135400704700BF0038024080B58AB000AF7860A3
:1013640007F1140300221A605A609A60DA601A6165
:101374007B681B682F4A934257D100233B612E4B55
:101384005B6C2D4A43F4807353642B4B5B6C03F406
:1013940080733B613B690023FB60274B1B6B264A30
:1013A40043F001031363244B1B6B03F00103FB6045
:1013B400FB6830237B610323BB610023FB6107F1DE
:1013C400140319461D4801F019FE1D4B1D4A1A60ED
:1013D4001B4B00225A601A4B00229A60184B0022C1
:1013E400DA60174B4FF480621A61154B4FF40062B8
:1013F4005A61134B4FF400529A61114B4FF48072AF
:10140400DA610F4B00221A620D4B00225A620C481B
:1014140001F088F90346002B01D0FFF70DFF7B682C
:10142400074A9A63064A7B68936300BF2837BD4620
:1014340080BD00BF0020014000380240000002408F
:10144400740000201064024080B58AB000AF786058
:1014540007F1140300221A605A609A60DA601A6174
:101464007B681B68304A93425AD100233B612F4B5F
:101474001B6B2E4A43F0020313632C4B1B6B03F0CC
:1014840002033B613B69C0237B611223BB610023E0
:10149400FB6103233B6204237B6207F114031946B7
:1014A400234801F0ABFD0023FB60204B1B6C1F4A5B
:1014B40043F4001313641D4B1B6C03F40013FB6013
:1014C400FB681C4B1C4A1A601A4B4FF000725A609E
:1014D400184B00229A60174B0022DA60154B4FF428
:1014E40080621A61134B00225A61124B00229A61E6
:1014F400104B0022DA610F4B4FF480321A620D4B0D
:1015040000225A620B4801F00DF90346002B01D06A
:10151400FFF792FE7B68074A9A63064A7B689363E7
:1015240000BF2837BD4680BD00540040003802404B
:1015340000040240280100201060024080B582B0FF
:1015440000AF78607B681B680C4A934212D10C4B45
:101554001B6C0B4A23F4001313644021094801F067
:10156400D1FE8021074801F0CDFE7B689B6B1846B5
:1015740001F086F900BF0837BD4680BD0054004025
:10158400003802400004024080B584B000AF7860A7
:101594007B681B681C4A934216D10023FB601B4BDB
:1015A4005B6C1A4A43F001035364184B5B6C03F001
:1015B4000103FB60FB6800220F21192001F088F869
:1015C400192001F0A1F81AE07B681B68104A9342C5
:1015D40015D10023BB600D4B1B6C0C4A43F0020376
:1015E40013640A4B1B6C03F00203BB60BB6800224C
:1015F40000211D2001F06CF81D2001F085F800BFCA
:101604001037BD4680BD00BF0000014000380240D5
:101614000004004080B58CB000AF786007F11C0373
:1016240000221A605A609A60DA601A617B681B684B
:10163400B3F1804F4BD10023BB613F4B1B6C3E4A3F
:1016440043F0010313643C4B1B6C03F00103BB61C7
:10165400BB6900237B61384B1B6B374A43F00103A2
:101664001363354B1B6B03F001037B617B69002320
:101674003B61314B1B6B304A43F0020313632E4B27
:101684001B6B03F002033B613B694FF40043FB61B6
:1016940002233B6200237B620023BB620123FB62C3
:1016A40007F11C031946254801F0A8FC0823FB6137
:1016B40002233B6200237B620023BB620123FB62A3
:1016C40007F11C0319461E4801F098FC30E07B68C2
:1016D4001B681C4A93422BD10023FB60164B1B6CE6
:1016E400154A43F008031364134B1B6C03F00803FF
:1016F400FB60FB680023BB600F4B1B6B0E4A43F07F
:10170400010313630C4B1B6B03F00103BB60BB6849
:101714000323FB6102233B6200237B620023BB6241
:101724000223FB6207F11C031946044801F066FC1E
:1017340000BF3037BD4680BD003802400000024083
:1017440000040240000C004080B588B000AF78600F
:1017540007F10C0300221A605A609A60DA601A6179
:101764007B681B68124A93421ED10023BB60114B55
:101774001B6B104A43F0010313630E4B1B6B03F006
:101784000103BB60BB684FF44073FB6002233B6101
:1017940000237B610023BB610123FB6107F10C0380
:1017A4001946054801F02AFC00BF2037BD4680BD1C
:1017B40000000140003802400000024080B58CB0B7
:1017C40000AF786007F11C0300221A605A609A6027
:1017D400DA601A617B681B68814A934240F0948006
:1017E4000023BB617F4B1B6C7E4A43F400331364BC
:1017F4007C4B1B6C03F40033BB61BB6900237B612E
:10180400784B1B6B774A43F001031363754B1B6BD7
:1018140003F001037B617B690C23FB6102233B62C0
:1018240000237B620323BB620723FB6207F11C03D3
:1018340019466D4801F0E2FB6C4B6D4A1A606B4B24
:101844004FF000625A60694B00229A60674B002295
:10185400DA60664B4FF480621A61644B00225A616D
:10186400624B00229A61614B4FF48072DA615F4BE4
:101874004FF400321A625D4B00225A625B4800F05A
:1018840051FF0346002B01D0FFF7D6FC7B68574A73
:10189400DA63564A7B689363564B574A1A60554B32
:1018A4004FF000625A60534B40229A60514B002221
:1018B400DA60504B4FF480621A614E4B00225A6139
:1018C4004C4B00229A614B4B0022DA61494B4FF496
:1018D40080321A62474B00225A62464800F022FFC7
:1018E4000346002B01D0FFF7A7FC7B68414A9A63AB
:1018F400404A7B68936300220021262000F0E8FE22
:10190400262000F001FF67E07B681B683B4A934296
:1019140062D100233B61334B5B6C324A43F02003BA
:101924005364304B5B6C03F020033B613B69002341
:10193400FB602C4B1B6B2B4A43F004031363294BB2
:101944001B6B03F00403FB60FB68C023FB610223F1
:101954003B6200237B620323BB620823FB6207F123
:101964001C031946264801F049FB264B264A1A60F7
:10197400244B4FF020625A60224B00229A60214B84
:101984000022DA601F4B4FF480621A611D4B002263
:101994005A611C4B00229A611A4B4FF48072DA612F
:1019A400184B00221A62174B00225A62154800F0A5
:1019B400B9FE0346002B01D0FFF73EFC7B68114AB9
:1019C400DA63104A7B68936300220021472000F009
:1019D4007FFE472000F098FE00BF3037BD4680BD33
:1019E4000044004000380240000002408003002010
:1019F40088600240E0030020A0600240001401401F
:101A040000080240400400202864024080B58CB0E5
:101A140000AF78600023BB6200237B620023BB60BD
:101A24002E4B5B6C2D4A43F4003353642B4B5B6C9D
:101A340003F40033BB60BB6807F10C0207F1100329
:101A44001146184603F03AFA03F024FAB862BB6A66
:101A5400234AA2FB03239B0C013B7B62214B224ABA
:101A64001A60204B40F2E732DA601E4A7B6A536008
:101A74001C4B00221A611B4B00229A60194B002256
:101A84009A61184803F04CFA034687F82F3097F808
:101A94002F30002B1BD1134803F0ECFA034687F8D0
:101AA4002F3097F82F30002B11D1192000F02CFE85
:101AB4007B680F2B08D800227968192000F008FEF3
:101AC4000A4A7B68136002E0012387F82F3097F8F5
:101AD4002F3018463037BD4680BD00BF0038024065
:101AE40083DE1B432C060020004401400800002034
:101AF40080B400AF00BFFDE780B400AF00BFFDE7D6
:101B040080B400AF00BFFDE780B400AF00BFFDE7C5
:101B140080B400AF00BFFDE780B400AF00BFBD4696
:101B24005DF8047B704780B400AF00BFBD465DF82C
:101B3400047B704780B400AF00BFBD465DF8047BF2
:101B4400704780B400AF00BFBD465DF8047B7047AA
:101B540080B500AF012001F0EDFC00BF80BD0000A6
:101B640080B500AF024800F0D3FF00BF80BD00BFC6
:101B74002801002080B500AF024800F0C9FF00BF73
:101B840080BD00BF8003002080B500AF024800F094
:101B9400BFFF00BF80BD00BFE003002080B500AFE1
:101BA400034803F007FD034803F004FD00BF80BDB4
:101BB400880100202C06002080B500AF024803F005
:101BC400F9FC00BF80BD00BF1802002080B500AF43
:101BD400024803F0EFFC00BF80BD00BF600200209C
:101BE40080B500AF024804F087FC00BF80BD00BF91
:101BF400F002002080B500AF024800F089FF00BF6A
:101C040080BD00BF7400002080B500AF024800F022
:101C14007FFF00BF80BD00BF4004002080B500AF3F
:101C2400024804F069FC00BF80BD00BF38030020F7
:101C340080B400AF064BD3F88830054A43F47003F0
:101C4400C2F8883000BFBD465DF8047B704700BF12
:101C540000ED00E0DFF834D0FFF7EAFF0C480D494F
:101C64000D4A002302E0D458C4500433C4188C42F3
:101C7400F9D30A4A0A4C002301E013600432A24259
:101C8400FBD305F04BFDFEF7BDFD704700000120BE
:101C94000000002010000020B07700081000002091
:101CA40078060020FEE7000080B500AF0E4B1B68ED
:101CB4000D4A43F4007313600B4B1B680A4A43F448
:101CC40080631360084B1B68074A43F480731360F6
:101CD400032000F0F2FC0F20FFF798FEFFF714FB3F
:101CE4000023184680BD00BF003C024080B400AF12
:101CF400064B1B781A46064B1B681344044A1360B0
:101D040000BFBD465DF8047B704700BF0C00002097
:101D14007406002080B400AF034B1B681846BD4610
:101D24005DF8047B704700BF7406002080B584B062
:101D340000AF7860FFF7EEFFB8607B68FB60FB687C
:101D4400B3F1FF3F05D00A4B1B781A46FB681344D6
:101D5400FB6000BFFFF7DEFF0246BB68D31AFA68D8
:101D64009A42F7D800BF00BF1037BD4680BD00BF00
:101D74000C00002080B584B000AF78600023FB73B2
:101D84007B68002B01D1012333E07B681B6C002BA3
:101D940009D17868FFF7E0FA7B6800225A647B680F
:101DA400002283F83C207B681B6C03F01003002B9B
:101DB40018D17B681B6C23F4885323F0020343F08F
:101DC40002027B681A64786800F04CFA7B6800228F
:101DD4005A647B681B6C23F0030343F001027B68A5
:101DE4001A6401E00123FB737B68002283F83C2022
:101DF400FB7B18461037BD4680BD000080B588B017
:101E040000AFF860B9607A6000237B610023FB7740
:101E1400FB6893F83C30012B01D10223D0E0FB682E
:101E2400012283F83C20FB681B689B6803F00103D4
:101E3400012B18D0FB681B689A68FB681B6842F08A
:101E440001029A60604B1B68604AA2FB03239A0C50
:101E540013465B0013447B6102E07B69013B7B61B9
:101E64007B69002BF9D1FB681B689B6803F48073C2
:101E7400B3F5807F07D1FB681B689A68FB681B6811
:101E840022F480729A60FB681B689B6803F001036C
:101E9400012B40F08880FB681B6C23F4E06323F083
:101EA400010343F48072FB681A64FB681B685B6877
:101EB40003F48063002B07D0FB681B6C23F44053AE
:101EC40043F48052FB681A64FB681B6C03F4805370
:101ED400B3F5805F06D1FB685B6C23F00602FB68F8
:101EE4005A6402E0FB6800225A64FB68002283F80B
:101EF4003C20374BBB61FB689B6B364ADA63FB685B
:101F04009B6B354A1A64FB689B6B344ADA64FB6842
:101F14001B686FF022021A60FB681B685A68FB6832
:101F24001B6842F080625A60FB681B689A68FB6811
:101F34001B6842F480729A60FB68986BFB681B68AC
:101F44004C331946BA687B6800F0F8FC0346FB770B
:101F5400BB695B6803F01F03002B0FD1FB681B6890
:101F64009B6803F04053002B29D1FB681B689A68D7
:101F7400FB681B6842F080429A6020E0FB681B68A3
:101F8400174A93421BD1FB681B689B6803F04053BC
:101F9400002B14D1FB681B689A68FB681B6842F02D
:101FA40080429A600BE0FB681B6C43F01002FB68F4
:101FB4001A64FB685B6C43F00102FB685A64FB7FA4
:101FC40018462037BD4680BD0400002083DE1B4335
:101FD40000230140612400081B2500083725000860
:101FE4000020014080B483B000AF786000BF0C379C
:101FF400BD465DF8047B704780B483B000AF786061
:1020040000BF0C37BD465DF8047B704780B483B0D5
:1020140000AF786000BF0C37BD465DF8047B7047A5
:1020240080B485B000AF786039600023BB607B6802
:1020340093F83C30012B01D1022305E17B68012296
:1020440083F83C203B681B68092B25D97B681B68F7
:10205400D9683B681B689BB21A4613465B0013445D
:102064001E3B072202FA03F3DA437B681B680A402B
:10207400DA607B681B68D9683B689A683B681B68B0
:102084009BB2184603465B0003441E3B9A407B68A0
:102094001B680A43DA6022E07B681B6819693B68A5
:1020A4001B689BB21A4613465B001344072202FACC
:1020B40003F3DA437B681B680A401A617B681B6878
:1020C40019693B689A683B681B689BB218460346CB
:1020D4005B0003449A407B681B680A431A613B68AF
:1020E4005B68062B24D87B681B68596B3B685A686D
:1020F40013469B001344053B1F2202FA03F3DA4301
:102104007B681B680A405A637B681B68596B3B6891
:102114001B689BB218463B685A6813469B001344DD
:10212400053B00FA03F27B681B680A435A634CE0E0
:102134003B685B680C2B24D87B681B68196B3B6875
:102144005A6813469B001344233B1F2202FA03F3ED
:10215400DA437B681B680A401A637B681B68196B47
:102164003B681B689BB218463B685A6813469B0041
:102174001344233B00FA03F27B681B680A431A6387
:1021840023E07B681B68D96A3B685A6813469B0046
:102194001344413B1F2202FA03F3DA437B681B68B2
:1021A4000A40DA627B681B68D96A3B681B689BB289
:1021B40018463B685A6813469B001344413B00FA97
:1021C40003F27B681B680A43DA62224BFB607B687C
:1021D4001B68214A934209D13B681B68122B05D125
:1021E400FB685B6843F48002FB685A607B681B6889
:1021F400194A934223D13B681B68102B03D03B68D8
:102204001B68112B1BD1FB685B6843F40002FB685D
:102214005A603B681B68102B11D1104B1B68104A85
:10222400A2FB03239A0C13469B0013445B00BB6080
:1022340002E0BB68013BBB60BB68002BF9D17B6843
:10224400002283F83C20002318461437BD465DF86D
:10225400047B70470023014000200140040000205B
:1022640083DE1B4380B485B000AF7860794BFB609C
:10227400FB685B6823F44032FB685A60FB685A6869
:102284007B685B681A43FB685A607B681B685A6802
:102294007B681B6822F480725A607B681B685968EB
:1022A4007B681B691A027B681B680A435A607B6857
:1022B4001B685A687B681B6822F040725A607B680E
:1022C4001B6859687B689A687B681B680A435A6074
:1022D4007B681B689A687B681B6822F400629A60BA
:1022E4007B681B6899687B68DA687B681B680A43AB
:1022F4009A607B689B6A584A934222D07B681B6829
:102304009A687B681B6822F070629A607B681B681D
:1023140099687B689A6A7B681B680A439A607B6841
:102324001B689A687B681B6822F040529A607B683D
:102334001B6899687B68DA6A7B681B680A439A6041
:102344000FE07B681B689A687B681B6822F07062E8
:102354009A607B681B689A687B681B6822F040520D
:102364009A607B681B689A687B681B6822F002028B
:102374009A607B681B6899687B681B7E5A007B683F
:102384001B680A439A607B6893F82030002B1BD0AB
:102394007B681B685A687B681B6842F400625A6059
:1023A4007B681B685A687B681B6822F460425A6029
:1023B4007B681B6859687B685B6A013B5A037B68CE
:1023C4001B680A435A6007E07B681B685A687B688D
:1023D4001B6822F400625A607B681B68DA6A7B68B7
:1023E4001B6822F47002DA627B681B68D96A7B6816
:1023F400DB69013B1A057B681B680A43DA627B6868
:102404001B689A687B681B6822F400729A607B6878
:102414001B6899687B6893F830305A027B681B68A4
:102424000A439A607B681B689A687B681B6822F47D
:1024340080629A607B681B6899687B685B699A0212
:102444007B681B680A439A6000BF1437BD465DF879
:10245400047B7047002301400100000F80B584B065
:1024640000AF78607B689B6BFB60FB681B6C03F0C0
:102474005003002B3CD1FB681B6C43F40072FB68D7
:102484001A64FB681B689B6803F04053002B2BD134
:10249400FB681B7E002B27D1FB681B68DB6A03F4F7
:1024A4007003002B06D0FB681B689B6803F48063F1
:1024B400002B19D1FB681B685A68FB681B6822F063
:1024C40020025A60FB681B6C23F48072FB681A6458
:1024D400FB681B6C03F48053002B05D1FB681B6C59
:1024E40043F00102FB681A64F868FFF77BFD0EE015
:1024F400FB681B6C03F01003002B03D0F868FFF794
:1025040085FD04E0FB689B6BDB6C7868984700BF33
:102514001037BD4680BD80B584B000AF78607B685D
:102524009B6BFB60F868FFF767FD00BF1037BD4683
:1025340080BD80B584B000AF78607B689B6BFB6026
:10254400FB6840221A64FB685B6C43F00402FB687E
:102554005A64F868FFF75AFD00BF1037BD4680BDC6
:1025640080B485B000AF78607B6803F00703FB603C
:102574000C4BDB68BB60BA684FF6FF031340BB60CB
:10258400FB681A02BB68134343F0BF6343F4003390
:10259400BB60044ABB68D36000BF1437BD465DF816
:1025A400047B704700ED00E080B400AF044BDB68AF
:1025B4001B0A03F007031846BD465DF8047B704709
:1025C40000ED00E080B483B000AF0346FB7197F9DF
:1025D4000730002B0BDBFB7903F01F02074997F947
:1025E40007305B09012000FA02F241F8232000BF02
:1025F4000C37BD465DF8047B704700BF00E100E086
:1026040080B483B000AF03463960FB7197F907309B
:10261400002B0ADB3B68DAB20C4997F90730120148
:10262400D2B20B4483F800230AE03B68DAB20849CB
:10263400FB7903F00F03043B1201D2B20B441A7668
:1026440000BF0C37BD465DF8047B704700E100E035
:1026540000ED00E080B489B000AFF860B9607A6042
:10266400FB6803F00703FB61FB69C3F10703042B59
:1026740028BF0423BB61FB690433062B02D9FB6921
:10268400033B00E000237B614FF0FF32BB6902FA99
:1026940003F3DA43BB681A407B699A404FF0FF3179
:1026A4007B6901FA03F3D9437B680B401343184653
:1026B4002437BD465DF8047B704780B582B000AF17
:1026C40078607868FFF74CFF00BF0837BD4680BDCF
:1026D40080B586B000AF0346B9607A60FB7300230F
:1026E4007B61FFF761FF78617A68B9687869FFF701
:1026F400B1FF024697F90F3011461846FFF780FFE5
:1027040000BF1837BD4680BD80B582B000AF034618
:10271400FB7197F907301846FFF754FF00BF0837DD
:10272400BD4680BD80B586B000AF786000237B6174
:10273400FFF7F0FA38617B68002B01D1012399E09F
:102744007B68022283F835207B68002283F83420DA
:102754007B681B681A687B681B6822F001021A6098
:102764000FE0FFF7D7FA02463B69D31A052B08D9C5
:102774007B6820225A657B68032283F83520032373
:1027840078E07B681B681B6803F00103002BE8D129
:102794007B681B681B687B617A69384B13407B61DB
:1027A4007B685A687B689B681A437B68DB681A43BA
:1027B4007B681B691A437B685B691A437B689B6966
:1027C4001A437B68DB691A437B681B6A13437A6983
:1027D40013437B617B685B6A042B07D17B68DA6AED
:1027E4007B681B6B13437A6913437B617B681B68AB
:1027F4007A691A607B681B685B697B617B6923F07B
:1028040007037B617B685B6A7A6913437B617B683E
:102814005B6A042B17D17B689B6A7A6913437B61DB
:102824007B68DB6A002B0ED0786800F06BFB0346F4
:10283400002B08D07B6840225A657B68012283F80C
:102844003520012316E07B681B687A695A61786831
:1028540000F022FB0346FB607B68DB6D3F229A405D
:10286400FB689A607B6800225A657B68012283F8C2
:102874003520002318461837BD4680BD3F8010F030
:1028840080B584B000AF78607B68002B01D1012350
:1028940050E07B6893F83530DBB2022B01D1022380
:1028A40048E07B681B681A687B681B6822F0010299
:1028B4001A607B681B6800221A607B681B68002210
:1028C4005A607B681B6800229A607B681B68002240
:1028D400DA607B681B6800221A617B681B6821220E
:1028E4005A61786800F0D8FA0346FB607B680022DE
:1028F400DA637B6800221A647B6800225A647B686E
:1029040000229A647B680022DA647B6800221A65DC
:102914007B68DB6D3F229A40FB689A607B680022EB
:102924005A657B68002283F835207B68002283F88F
:102934003420002318461037BD4680BD80B586B0CC
:1029440000AFF860B9607A603B600023FB75FB68F8
:102954009B6D3B61FB6893F83430012B01D102235A
:1029640040E0FB68012283F83420FB6893F835309B
:10297400DBB2012B2FD1FB68022283F83520FB68E0
:1029840000225A653B687A68B968F86800F056FA1C
:10299400FB68DB6D3F229A403B699A60FB681B68C9
:1029A4001A68FB681B6842F016021A60FB681B6C0D
:1029B400002B07D0FB681B681A68FB681B6842F091
:1029C40008021A60FB681B681A68FB681B6842F0FF
:1029D40001021A6005E0FB68002283F83420022318
:1029E400FB75FB7D18461837BD4680BD80B584B0A5
:1029F40000AF78607B689B6DFB60FFF78BF9B86074
:102A04007B6893F83530DBB2022B08D07B688022D8
:102A14005A657B68002283F83420012352E07B68E6
:102A24001B681A687B681B6822F016021A607B68B0
:102A34001B685A697B681B6822F080025A617B68B4
:102A44001B6C002B03D17B689B6C002B07D07B682D
:102A54001B681A687B681B6822F008021A607B688E
:102A64001B681A687B681B6822F001021A6013E075
:102A7400FFF750F90246BB68D31A052B0CD97B68C3
:102A840020225A657B68032283F835207B68002264
:102A940083F83420032315E07B681B681B6803F06C
:102AA4000103002BE4D17B68DB6D3F229A40FB6875
:102AB4009A607B68012283F835207B68002283F8C2
:102AC4003420002318461037BD4680BD80B483B03F
:102AD40000AF78607B6893F83530DBB2022B04D00A
:102AE4007B6880225A6501230CE07B68052283F809
:102AF40035207B681B681A687B681B6822F001021A
:102B04001A60002318460C37BD465DF8047B7047F5
:102B140080B586B000AF78600023BB608E4B1B6825
:102B24008E4AA2FB03239B0A7B617B689B6D3B61FE
:102B34003B691B68FB607B68DB6D08229A40FB687D
:102B44001340002B1AD07B681B681B6803F0040336
:102B5400002B13D07B681B681A687B681B6822F003
:102B640004021A607B68DB6D08229A403B699A6014
:102B74007B685B6D43F001027B685A657B68DB6DA3
:102B840001229A40FB681340002B12D07B681B681B
:102B94005B6903F08003002B0BD07B68DB6D0122A3
:102BA4009A403B699A607B685B6D43F002027B68E4
:102BB4005A657B68DB6D04229A40FB681340002B46
:102BC40012D07B681B681B6803F00203002B0BD038
:102BD4007B68DB6D04229A403B699A607B685B6D7D
:102BE40043F004027B685A657B68DB6D10229A40CF
:102BF400FB681340002B43D07B681B681B6803F001
:102C04000803002B3CD07B68DB6D10229A403B69A3
:102C14009A607B681B681B6803F48023002B18D020
:102C24007B681B681B6803F40023002B08D17B68B6
:102C34001B6C002B24D07B681B6C786898471FE0C2
:102C44007B689B6C002B1BD07B689B6C78689847D7
:102C540016E07B681B681B6803F48073002B07D1A4
:102C64007B681B681A687B681B6822F008021A607C
:102C74007B681B6C002B03D07B681B6C78689847BF
:102C84007B68DB6D20229A40FB681340002B00F028
:102C94008F807B681B681B6803F01003002B00F017
:102CA40087807B68DB6D20229A403B699A607B6851
:102CB40093F83530DBB2052B36D17B681B681A6874
:102CC4007B681B6822F016021A607B681B685A69CD
:102CD4007B681B6822F080025A617B681B6C002BA6
:102CE40003D17B689B6C002B07D07B681B681A6838
:102CF4007B681B6822F008021A607B68DB6D3F2248
:102D04009A403B699A607B68012283F835207B688E
:102D1400002283F834207B681B6D002B7ED07B68F7
:102D24001B6D7868984779E07B681B681B6803F41F
:102D34008023002B1DD07B681B681B6803F40023D1
:102D4400002B0DD17B685B6C002B31D07B685B6CF6
:102D5400786898472CE000BF04000020B5814E1B22
:102D64007B68DB6B002B23D07B68DB6B7868984730
:102D74001EE07B681B681B6803F48073002B0FD173
:102D84007B681B681A687B681B6822F010021A6053
:102D94007B68012283F835207B68002283F8342085
:102DA4007B68DB6B002B03D07B68DB6B7868984710
:102DB4007B685B6D002B32D07B685B6D03F0010395
:102DC400002B22D07B68052283F835207B681B68A2
:102DD4001A687B681B6822F001021A60BB68013321
:102DE400BB607A699A4207D37B681B681B6803F04F
:102DF4000103002BF2D100E000BF7B68012283F8BD
:102E040035207B68002283F834207B68DB6C002B40
:102E140005D07B68DB6C7868984700E000BF183702
:102E2400BD4680BD80B483B000AF78607B685B6DC5
:102E340018460C37BD465DF8047B704780B485B0F6
:102E440000AFF860B9607A603B60FB681B681A6881
:102E5400FB681B6822F480221A60FB681B683A68CE
:102E64005A60FB689B68402B08D1FB681B687A6832
:102E74009A60FB681B68BA68DA6007E0FB681B6845
:102E8400BA689A60FB681B687A68DA6000BF143716
:102E9400BD465DF8047B704780B485B000AF7860B0
:102EA4007B681B68DBB2103B144AA2FB03231B099B
:102EB400FB60134AFB6813441B781A467B68DA6587
:102EC400FB68032B09D97B681B6823F47F7323F009
:102ED40003031A1D7B689A6507E07B681B6823F46B
:102EE4007F7323F003037A6893657B689B6D1846B0
:102EF4001437BD465DF8047B704700BFABAAAAAA8D
:102F04009877000880B485B000AF78600023FB7325
:102F14007B689B6ABB607B689B69002B1FD1BB6885
:102F2400032B56D801A252F823F000BF412F00080A
:102F3400532F0008412F0008D72F00087B68DB6A55
:102F440003F08073002B46D00123FB7343E07B68BE
:102F5400DB6AB3F1C07F40D10123FB733DE07B68A2
:102F64009B69B3F5005F21D1BB68032B37D801A25D
:102F740052F823F0892F00088F2F0008892F0008AA
:102F8400A12F00080123FB7330E07B68DB6A03F0A8
:102F94008073002B25D00123FB7322E07B68DB6A5E
:102FA400B3F1C07F1FD10123FB731CE0BB68022B6C
:102FB40003D9BB68032B03D018E00123FB7315E08E
:102FC4007B68DB6A03F08073002B0ED00123FB7354
:102FD4000BE000BF0AE000BF08E000BF06E000BF4E
:102FE40004E000BF02E000BF00E000BFFB7B184626
:102FF4001437BD465DF8047B704700BF80B489B0C8
:1030040000AF7860396000237B6100233B610023BB
:10301400BB610023FB6159E10122FB6902FA03F35E
:103024007B613B681B687A6913403B613A697B6941
:103034009A4240F048813B685B6803F00303012B2C
:1030440005D03B685B6803F00303022B30D17B6837
:103054009B68BB61FB695B00032202FA03F3DB4359
:10306400BA691340BB613B68DA68FB695B0002FA2A
:1030740003F3BA691343BB617B68BA699A607B68DE
:103084005B68BB610122FB6902FA03F3DB43BA69A3
:103094001340BB613B685B681B0903F00102FB69D9
:1030A40002FA03F3BA691343BB617B68BA695A60D5
:1030B4003B685B6803F00303032B17D07B68DB6872
:1030C400BB61FB695B00032202FA03F3DB43BA69C9
:1030D4001340BB613B689A68FB695B0002FA03F327
:1030E400BA691343BB617B68BA69DA603B685B68A1
:1030F40003F00303022B23D1FB69DA087B6808324F
:1031040053F82230BB61FB6903F007039B000F22D5
:1031140002FA03F3DB43BA691340BB613B681A69E3
:10312400FB6903F007039B0002FA03F3BA69134334
:10313400BB61FB69DA087B680832B96943F822107D
:103144007B681B68BB61FB695B00032202FA03F323
:10315400DB43BA691340BB613B685B6803F003025D
:10316400FB695B0002FA03F3BA691343BB617B6832
:10317400BA691A603B685B6803F44033002B00F0C3
:10318400A2800023FB60574B5B6C564A43F4804398
:103194005364544B5B6C03F48043FB60FB68524AFA
:1031A400FB699B08023352F82330BB61FB6903F0CF
:1031B40003039B000F2202FA03F3DB43BA691340B3
:1031C400BB617B68494A934219D07B68484A934261
:1031D40013D07B68474A93420DD07B68464A93429A
:1031E40007D07B68454A934201D1042308E00723B2
:1031F40006E0032304E0022302E0012300E00023AD
:10320400FA6902F0030292009340BA691343BB6166
:103214003549FB699B080233BA6941F82320384BCE
:103224009B68BB613B69DB43BA691340BB613B6884
:103234005B6803F48013002B03D0BA693B69134322
:10324400BB612F4ABB6993602D4BDB68BB613B6953
:10325400DB43BA691340BB613B685B6803F400134A
:10326400002B03D0BA693B691343BB61244ABB6991
:10327400D360234B5B68BB613B69DB43BA69134092
:10328400BB613B685B6803F40033002B03D0BA696D
:103294003B691343BB611A4ABB695360184B1B68F3
:1032A400BB613B69DB43BA691340BB613B685B6844
:1032B40003F48033002B03D0BA693B691343BB6129
:1032C4000F4ABB691360FB690133FB61FB690F2B78
:1032D4007FF6A2AE00BF00BF2437BD465DF8047B75
:1032E400704700BF0038024000380140000002402F
:1032F4000004024000080240000C0240001002409A
:10330400003C014080B487B000AF7860396000238E
:103314003B610023FB600023BB6000237B61BBE0B7
:1033240001227B6902FA03F33B613A683B6913406B
:10333400FB60FA683B699A4240F0AB805C4A7B6967
:103344009B08023352F82330BB607B6903F003030C
:103354009B000F2202FA03F3BA681340BB607B6838
:10336400544A934219D07B68534A934213D07B68E2
:10337400524A93420DD07B68514A934207D07B68EE
:10338400504A934201D1042308E0072306E00323B3
:1033940004E0022302E0012300E000237A6902F042
:1033A400030292009340BA689A4232D1464B1A689B
:1033B400FB68DB43444913400B60434B5A68FB688A
:1033C400DB43414913404B603F4BDA68FB68DB4306
:1033D4003D491340CB603C4B9A68FB68DB433A4958
:1033E40013408B607B6903F003039B000F2202FAF6
:1033F40003F3BB602E4A7B699B08023352F8231007
:10340400BB68DA432A487B699B080A40023340F8C8
:1034140023207B681A687B695B00032101FA03F3AC
:10342400DB431A407B681A607B69DA087B680832E0
:1034340053F822107B6903F007039B000F2202FA62
:1034440003F3DB437A69D20819407B68083243F8F6
:1034540022107B68DA687B695B00032101FA03F3BD
:10346400DB431A407B68DA607B685A6801217B6918
:1034740001FA03F3DB431A407B685A607B689A685D
:103484007B695B00032101FA03F3DB431A407B6889
:103494009A607B6901337B617B690F2B7FF640AFB8
:1034A40000BF00BF1C37BD465DF8047B704700BFFA
:1034B40000380140000002400004024000080240BD
:1034C400000C024000100240003C014080B483B074
:1034D40000AF78600B467B8013467B707B78002BB3
:1034E40003D07A887B689A6103E07B881A047B683E
:1034F4009A6100BF0C37BD465DF8047B704780B409
:1035040085B000AF78600B467B807B685B69FB60AD
:103514007A88FB6813401A04FB68D9437B880B4004
:103524001A437B689A6100BF1437BD465DF8047B7B
:103534007047000080B582B000AF0346FB80084BA3
:103544005A69FB881340002B06D0054AFB88536157
:10355400FB881846FDF75EFD00BF0837BD4680BDF9
:10356400003C014080B584B000AF78607B68002BDC
:1035740001D101232BE17B6893F83D30DBB2002BB2
:1035840006D17B68002283F83C207868FDF75CFF55
:103594007B68242283F83D207B681B681A687B685B
:1035A4001B6822F001021A607B681B681A687B683A
:1035B4001B6842F400421A607B681B681A687B68C7
:1035C4001B6822F400421A6001F050FCF8607B682A
:1035D4005B68814A934207D8FB68804A934294BF50
:1035E40001230023DBB206E0FB687D4A934294BFCB
:1035F40001230023DBB2002B01D00123E7E0FB68A9
:10360400784AA2FB03239B0CBB607B681B685B6846
:1036140023F03F017B681B68BA680A435A607B68E1
:103624001B681B6A23F03F017B685B686A4A93420C
:1036340002D8BB68013309E0BB684FF4967202FB01
:1036440003F3694AA2FB03239B0901337A681268D6
:103654000B4313627B681B68DB6923F44F4222F03F
:10366400FF027B685B685C498B4219D8FB68591E72
:103674007B685B685B00B1FBF3F3591C40F6FC7399
:103684000B40002B0AD0FB68591E7B685B685B000B
:10369400B1FBF3F30133C3F30B0351E004234FE015
:1036A4007B689B68002B11D1FB68581E7B685968A6
:1036B4000B465B000B44B0FBF3F30133C3F30B0382
:1036C400002B0CBF01230023DBB212E0FB68581E61
:1036D4007B6859680B469B000B4499000B44B0FB74
:1036E400F3F30133C3F30B03002B0CBF01230023BB
:1036F400DBB2002B01D0012322E07B689B68002B06
:103704000ED1FB68581E7B6859680B465B000B445E
:10371400B0FBF3F30133C3F30B0343F400430FE0B3
:10372400FB68581E7B6859680B469B000B44990044
:103734000B44B0FBF3F30133C3F30B0343F44043F3
:10374400796809681343CB617B681B681B6823F0A5
:10375400C0017B68DA697B681B6A1A437B681B6853
:103764000A431A607B681B689B6823F4034323F0B5
:10377400FF037A6811697A68D26811437A6812681B
:103784000B4393607B681B68DB6823F0FF017B6855
:103794005A697B689B691A437B681B680A43DA6031
:1037A4007B681B681A687B681B6842F001021A6018
:1037B4007B6800221A647B68202283F83D207B68A2
:1037C40000221A637B68002283F83E2000231846F7
:1037D4001037BD4680BD00BFA08601007F841E0057
:1037E400FF083D0083DE1B43D34D621080B582B0D9
:1037F40000AF78607B68002B01D1012321E07B6856
:10380400242283F83D207B681B681A687B681B6848
:1038140022F001021A607868FDF790FE7B680022AE
:103824001A647B68002283F83D207B6800221A63B7
:103834007B68002283F83E207B68002283F83C20CA
:10384400002318460837BD4680BD000080B588B007
:1038540002AFF860084611461A4603467B810B46C0
:103864003B811346FB80FEF755FA7861FB6893F8B9
:103874003D30DBB2202B40F0D9807B6900931923C3
:1038840001226D49F86800F08BFC0346002B01D03F
:103894000223CCE0FB6893F83C30012B01D10223D6
:1038A400C5E0FB68012283F83C20FB681B681B68A9
:1038B40003F00103012B07D0FB681B681A68FB683F
:1038C4001B6842F001021A60FB681B681A68FB68F7
:1038D4001B6822F400621A60FB68212283F83D20F1
:1038E400FB68402283F83E20FB6800221A64FB68D0
:1038F4003A6A5A62FB68BA8C5A85FB685B8D9AB245
:10390400FB681A85FB684D4ADA62F8883A89798936
:103914007B690193BB6A00930346F86800F0C2FA1E
:103924000346002B52D0012381E07A69B96AF86812
:1039340000F050FD0346002B0DD0FB681B6C042BDC
:1039440007D1FB681B681A68FB681B6842F40072A5
:103954001A6001236BE0FB685B6A1A78FB681B68DA
:103964001A61FB685B6A5A1CFB685A62FB681B8D10
:10397400013B9AB2FB681A85FB685B8D9BB2013BE5
:103984009AB2FB685A85FB681B685B6903F0040301
:10399400042B1BD1FB681B8D002B17D0FB685B6AC3
:1039A4001A78FB681B681A61FB685B6A5A1CFB681F
:1039B4005A62FB681B8D013B9AB2FB681A85FB684F
:1039C4005B8D9BB2013B9AB2FB685A85FB681B8DE9
:1039D400002BAAD17A69B96AF86800F043FD03465E
:1039E400002B0DD0FB681B6C042B07D1FB681B68F4
:1039F4001A68FB681B6842F400721A60012316E01F
:103A0400FB681B681A68FB681B6842F400721A6042
:103A1400FB68202283F83D20FB68002283F83E20C7
:103A2400FB68002283F83C20002300E002231846B0
:103A34001837BD4680BD00BF020010000000FFFF24
:103A440080B58CB002AFF860084611461A460346AA
:103A54007B810B463B811346FB80FEF75BF9786262
:103A6400FB6893F83D30DBB2202B40F014827B6A74
:103A74000093192301227B49F86800F091FB034667
:103A8400002B01D0022307E2FB6893F83C30012BA2
:103A940001D1022300E2FB68012283F83C20FB6889
:103AA4001B681B6803F00103012B07D0FB681B682C
:103AB4001A68FB681B6842F001021A60FB681B6805
:103AC4001A68FB681B6822F400621A60FB682222F1
:103AD40083F83D20FB68402283F83E20FB680022E7
:103AE4001A64FB683A6B5A62FB68BA8E5A85FB68A3
:103AF4005B8D9AB2FB681A85FB685B4ADA62F888C8
:103B04003A8979897B6A0193BB6B00930346F86811
:103B140000F05EFA0346002B01D00123BCE1FB68F0
:103B24001B8D002B13D100233B62FB681B685B6970
:103B34003B62FB681B689B693B623B6AFB681B68D2
:103B44001A68FB681B6842F400721A6090E1FB6813
:103B54001B8D012B1BD1FB681B681A68FB681B6853
:103B640022F480621A600023FB61FB681B685B69B6
:103B7400FB61FB681B689B69FB61FB69FB681B6855
:103B84001A68FB681B6842F400721A6070E1FB68F3
:103B94001B8D022B1BD1FB681B681A68FB681B6812
:103BA40022F480621A60FB681B681A68FB681B6851
:103BB40042F400621A600023BB61FB681B685B6906
:103BC400BB61FB681B689B69BB61BB6950E1002357
:103BD4007B61FB681B685B697B61FB681B689B6995
:103BE4007B617B6944E1FB681B8D032B00F2F18050
:103BF400FB681B8D012B23D17A6AB96BF86800F03E
:103C040079FC0346002B01D0012345E1FB681B68C6
:103C14001A69FB685B6AD2B21A70FB685B6A5A1C49
:103C2400FB685A62FB681B8D013B9AB2FB681A85DC
:103C3400FB685B8D9BB2013B9AB2FB685A8517E126
:103C4400FB681B8D022B4ED17B6A0093BB6B002259
:103C54000649F86800F0A4FA0346002B08D00123B3
:103C64001AE100BF020010000000FFFF0400010081
:103C7400FB681B681A68FB681B6842F400721A60D0
:103C8400FB681B681A69FB685B6AD2B21A70FB682E
:103C94005B6A5A1CFB685A62FB681B8D013B9AB233
:103CA400FB681A85FB685B8D9BB2013B9AB2FB688B
:103CB4005A85FB681B681A69FB685B6AD2B21A7082
:103CC400FB685B6A5A1CFB685A62FB681B8D013BEC
:103CD4009AB2FB681A85FB685B8D9BB2013B9AB272
:103CE400FB685A85C4E07B6A0093BB6B00226C4975
:103CF400F86800F055FA0346002B01D00123CBE00D
:103D0400FB681B681A68FB681B6822F480621A60EF
:103D1400FB681B681A69FB685B6AD2B21A70FB689D
:103D24005B6A5A1CFB685A62FB681B8D013B9AB2A2
:103D3400FB681A85FB685B8D9BB2013B9AB2FB68FA
:103D44005A857B6A0093BB6B00225549F86800F0E2
:103D540027FA0346002B01D001239DE0FB681B6872
:103D64001A68FB681B6842F400721A60FB681B68DF
:103D74001A69FB685B6AD2B21A70FB685B6A5A1CE8
:103D8400FB685A62FB681B8D013B9AB2FB681A857B
:103D9400FB685B8D9BB2013B9AB2FB685A85FB685A
:103DA4001B681A69FB685B6AD2B21A70FB685B6AAB
:103DB4005A1CFB685A62FB681B8D013B9AB2FB6874
:103DC4001A85FB685B8D9BB2013B9AB2FB685A85EE
:103DD4004EE07A6AB96BF86800F08CFB0346002B5E
:103DE40001D0012358E0FB681B681A69FB685B6A11
:103DF400D2B21A70FB685B6A5A1CFB685A62FB6891
:103E04001B8D013B9AB2FB681A85FB685B8D9BB2E4
:103E1400013B9AB2FB685A85FB681B685B6903F037
:103E24000403042B24D1FB681B8D032B07D1FB68EF
:103E34001B681A68FB681B6822F480621A60FB68BE
:103E44001B681A69FB685B6AD2B21A70FB685B6A0A
:103E54005A1CFB685A62FB681B8D013B9AB2FB68D3
:103E64001A85FB685B8D9BB2013B9AB2FB685A854D
:103E7400FB681B8D002B7FF4B6AEFB68202283F811
:103E84003D20FB68002283F83E20FB68002283F873
:103E94003C20002300E0022318462837BD4680BD9D
:103EA4000400010080B588B002AFF86008461146EE
:103EB4001A4603467B810B463B811346FB80FB6815
:103EC4001B681A68FB681B6842F480721A607B6A7C
:103ED40000933B6A00224FF00111F86800F060F98A
:103EE4000346002B0DD0FB681B681B6803F480732A
:103EF400B3F5807F03D1FB684FF400721A64032387
:103F04005FE07B89DBB21A46FB681B6802F0FE02A5
:103F14001A617B6A3A6A2D49F86800F0BBF90346D6
:103F2400002B01D001234CE000237B61FB681B685C
:103F34005B697B61FB681B689B697B617B697A6A4F
:103F4400396AF86800F046FA0346002B0DD0FB6886
:103F54001B6C042B07D1FB681B681A68FB681B6881
:103F640042F400721A6001232BE0FB88012B05D177
:103F74003B89DAB2FB681B681A6121E03B891B0AA2
:103F84009BB2DAB2FB681B681A617A6A396AF8680C
:103F940000F020FA0346002B0DD0FB681B6C042BA9
:103FA40007D1FB681B681A68FB681B6842F400723F
:103FB4001A60012305E03B89DAB2FB681B681A61C9
:103FC400002318461837BD4680BD00BF020001001B
:103FD40080B588B002AFF860084611461A46034619
:103FE4007B810B463B811346FB80FB681B681A6888
:103FF400FB681B6842F480621A60FB681B681A68DD
:10400400FB681B6842F480721A607B6A00933B6A07
:1040140000224FF00111F86800F0C2F80346002BAB
:104024000DD0FB681B681B6803F48073B3F5807FB5
:1040340003D1FB684FF400721A640323AAE07B895E
:10404400DBB21A46FB681B6802F0FE021A617B6A47
:104054003A6A5249F86800F01DF90346002B01D072
:10406400012397E000237B61FB681B685B697B612C
:10407400FB681B689B697B617B697A6A396AF868AB
:1040840000F0A8F90346002B0DD0FB681B6C042B31
:1040940007D1FB681B681A68FB681B6842F400724E
:1040A4001A60012376E0FB88012B05D13B89DAB243
:1040B400FB681B681A6121E03B891B0A9BB2DAB2D8
:1040C400FB681B681A617A6A396AF86800F082F939
:1040D4000346002B0DD0FB681B6C042B07D1FB6837
:1040E4001B681A68FB681B6842F400721A6001239B
:1040F40050E03B89DAB2FB681B681A617A6A396A54
:10410400F86800F067F90346002B0DD0FB681B6CC0
:10411400042B07D1FB681B681A68FB681B6842F410
:1041240000721A60012335E0FB681B681A68FB689B
:104134001B6842F480721A607B6A00933B6A002217
:104144004FF00111F86800F02BF80346002B0DD056
:10415400FB681B681B6803F48073B3F5807F03D18D
:10416400FB684FF400721A64032313E07B89DBB20B
:1041740043F00103DAB2FB681B681A617B6A3A6A8E
:104184000649F86800F086F80346002B01D00123A5
:1041940000E0002318461837BD4680BD0200010028
:1041A40080B584B000AFF860B9603B601346FB7122
:1041B40048E03B68B3F1FF3F44D0FDF7ABFD024656
:1041C400BB69D31A3A689A4202D33B68002B39D1AF
:1041D400BB681B0CDBB2012B0DD1FB681B685B6950
:1041E400DA43BB6813409BB2002B0CBF01230023AE
:1041F400DBB21A460CE0FB681B689B69DA43BB68B8
:1042040013409BB2002B0CBF01230023DBB21A46E0
:10421400FB799A4216D1FB6800221A63FB682022BC
:1042240083F83D20FB68002283F83E20FB681B6C6A
:1042340043F02002FB681A64FB68002283F83C20E8
:10424400012323E0BB681B0CDBB2012B0DD1FB68FF
:104254001B685B69DA43BB6813409BB2002B0CBF3D
:1042640001230023DBB21A460CE0FB681B689B6940
:10427400DA43BB6813409BB2002B0CBF012300231D
:10428400DBB21A46FB799A4293D0002318461037C2
:10429400BD4680BD80B584B000AFF860B9607A6077
:1042A4003B6071E0FB681B685B6903F48063B3F5F2
:1042B400806F23D1FB681B681A68FB681B6842F493
:1042C40000721A60FB681B686FF480625A61FB68B5
:1042D40000221A63FB68202283F83D20FB68002239
:1042E40083F83E20FB681B6C43F00402FB681A64ED
:1042F400FB68002283F83C20012367E07B68B3F16C
:10430400FF3F41D0FDF706FD02463B68D31A7A68A9
:104314009A4202D37B68002B36D1BB681B0CDBB2FC
:10432400012B0CD1FB681B685B69DA43BB68134043
:104334009BB2002B14BF01230023DBB20BE0FB680C
:104344001B689B69DA43BB6813409BB2002B14BF04
:1043540001230023DBB2002B16D0FB6800221A6372
:10436400FB68202283F83D20FB68002283F83E206E
:10437400FB681B6C43F02002FB681A64FB68002294
:1043840083F83C20012321E0BB681B0CDBB2012B2A
:104394000CD1FB681B685B69DA43BB6813409BB2B2
:1043A400002B14BF01230023DBB20BE0FB681B6866
:1043B4009B69DA43BB6813409BB2002B14BF0123F3
:1043C4000023DBB2002B7FF46DAF002318461037B7
:1043D400BD4680BD80B584B000AFF860B9607A6036
:1043E40034E0F86800F0E3F80346002B01D0012321
:1043F40034E0BB68B3F1FF3F28D0FDF78BFC0246E5
:104404007B68D31ABA689A4202D3BB68002B1DD1C9
:10441400FB681B685B6903F08003802B16D0FB6884
:1044240000221A63FB68202283F83D20FB680022E7
:1044340083F83E20FB681B6C43F02002FB681A647F
:10444400FB68002283F83C20012307E0FB681B681B
:104454005B6903F08003802BC3D100231846103717
:10446400BD4680BD80B584B000AFF860B9607A60A5
:1044740034E0F86800F09BF80346002B01D00123D8
:1044840034E0BB68B3F1FF3F28D0FDF743FC02469C
:104494007B68D31ABA689A4202D3BB68002B1DD139
:1044A400FB681B685B6903F00403042B16D0FB68EC
:1044B40000221A63FB68202283F83D20FB68002257
:1044C40083F83E20FB681B6C43F02002FB681A64EF
:1044D400FB68002283F83C20012307E0FB681B688B
:1044E4005B6903F00403042BC3D10023184610377F
:1044F400BD4680BD80B584B000AFF860B9607A6015
:1045040049E0FB681B685B6903F01003102B19D1A9
:10451400FB681B686FF010025A61FB6800221A6383
:10452400FB68202283F83D20FB68002283F83E20AC
:10453400FB681A6CFB681A64FB68002283F83C2051
:10454400012330E0FDF7E6FB02467B68D31ABA6824
:104554009A4202D3BB68002B1DD1FB681B685B69C0
:1045640003F04003402B16D0FB6800221A63FB685B
:10457400202283F83D20FB68002283F83E20FB685C
:104584001B6C43F02002FB681A64FB68002283F86A
:104594003C20012307E0FB681B685B6903F04003D0
:1045A400402BAED1002318461037BD4680BD80B4E1
:1045B40083B000AF78607B681B685B6903F4806339
:1045C400B3F5806F1BD17B681B686FF480625A61FE
:1045D4007B6800221A637B68202283F83D207B6875
:1045E400002283F83E207B681B6C43F004027B6846
:1045F4001A647B68002283F83C20012300E0002336
:1046040018460C37BD465DF8047B704780B586B00C
:1046140000AF78607B68002B01D1012367E27B68DF
:104624001B6803F00103002B75D0884B9B6803F0D3
:104634000C03042B0CD0854B9B6803F00C03082B54
:1046440012D1824B5B6803F48003B3F5800F0BD166
:104654007E4B1B6803F40033002B5BD07B685B68E4
:10466400002B57D1012342E27B685B68B3F5803F9E
:1046740006D1764B1B68754A43F4803313601DE002
:104684007B685B68B3F5A02F0CD1704B1B686F4A35
:1046940043F4802313606D4B1B686C4A43F48033EE
:1046A40013600BE0694B1B68684A23F48033136082
:1046B400664B1B68654A23F4802313607B685B6840
:1046C400002B13D0FDF726FB386108E0FDF722FB31
:1046D40002463B69D31A642B01D9032307E25B4BDF
:1046E4001B6803F40033002BF0D014E0FDF712FB39
:1046F400386108E0FDF70EFB02463B69D31A642BD0
:1047040001D90323F3E1514B1B6803F40033002B5D
:10471400F0D100E000BF7B681B6803F00203002BAC
:1047240063D04A4B9B6803F00C03002B0BD0474B20
:104734009B6803F00C03082B1CD1444B5B6803F407
:104744008003002B16D1414B1B6803F00203002B9E
:1047540005D07B68DB68012B01D00123C7E13B4B0B
:104764001B6823F0F8027B681B69DB00374913439D
:104774000B603AE07B68DB68002B20D0344B0122CD
:104784001A60FDF7C7FA386108E0FDF7C3FA02467C
:104794003B69D31A022B01D90323A8E12B4B1B68D5
:1047A40003F00203002BF0D0284B1B6823F0F8021F
:1047B4007B681B69DB00254913430B6015E0244B20
:1047C40000221A60FDF7A6FA386108E0FDF7A2FAA4
:1047D40002463B69D31A022B01D9032387E11B4B01
:1047E4001B6803F00203002BF0D17B681B6803F005
:1047F4000803002B36D07B685B69002B16D0154B61
:1048040001221A60FDF786FA386108E0FDF782FAA2
:1048140002463B69D31A022B01D9032367E10B4BF0
:104824005B6F03F00203002BF0D01BE0094B002266
:104834001A60FDF76FFA38610EE0FDF76BFA024675
:104844003B69D31A022B07D9032350E100380240F5
:1048540000004742800E4742884B5B6F03F002031F
:10486400002BEAD17B681B6803F00403002B00F0E3
:1048740097800023FB75814B1B6C03F08053002B46
:104884000FD10023BB607D4B1B6C7C4A43F08053EB
:1048940013647A4B1B6C03F08053BB60BB68012329
:1048A400FB75774B1B6803F48073002B18D1744B92
:1048B4001B68734A43F480731360FDF72BFA386165
:1048C40008E0FDF727FA02463B69D31A022B01D907
:1048D40003230CE16A4B1B6803F48073002BF0D0B4
:1048E4007B689B68012B06D1644B1B6F634A43F0C2
:1048F400010313671CE07B689B68052B0CD15F4B9D
:104904001B6F5E4A43F0040313675C4B1B6F5B4AE7
:1049140043F0010313670BE0584B1B6F574A23F016
:1049240001031367554B1B6F544A23F004031367A9
:104934007B689B68002B15D0FDF7ECF938610AE021
:10494400FDF7E8F902463B69D31A41F288329342F3
:1049540001D90323CBE0494B1B6F03F00203002B67
:10496400EED014E0FDF7D6F938610AE0FDF7D2F98C
:1049740002463B69D31A41F28832934201D9032398
:10498400B5E03E4B1B6F03F00203002BEED1FB7D21
:10499400012B05D1394B1B6C384A23F08053136427
:1049A4007B689B69002B00F0A180344B9B6803F06B
:1049B4000C03082B5CD07B689B69022B41D1314BE3
:1049C40000221A60FDF7A6F9386108E0FDF7A2F9A4
:1049D40002463B69D31A022B01D9032387E0274BF4
:1049E4001B6803F00073002BF0D17B68DA697B68E5
:1049F4001B6A1A437B685B6A9B011A437B689B6A48
:104A04005B08013B1B041A437B68DB6A1B061B49DA
:104A140013434B601B4B01221A60FDF77BF938618D
:104A240008E0FDF777F902463B69D31A022B01D956
:104A340003235CE0114B1B6803F00073002BF0D0E0
:104A440054E0104B00221A60FDF764F9386108E065
:104A5400FDF760F902463B69D31A022B01D90323FF
:104A640045E0064B1B6803F00073002BF0D13DE0DA
:104A74007B689B69012B07D1012338E00038024091
:104A840000700040600047421B4B5B68FB607B6822
:104A94009B69012B28D0FB6803F480027B68DB69E7
:104AA4009A4221D1FB6803F03F027B681B6A9A4259
:104AB4001AD1FA6847F6C07313407A68526A9201B1
:104AC400934211D1FB6803F440327B689B6A5B0814
:104AD400013B1B049A4207D1FB6803F070627B68B8
:104AE400DB6A1B069A4201D0012300E0002318462A
:104AF4001837BD4680BD00BF0038024080B584B081
:104B040000AF786039607B68002B01D10123CCE0D1
:104B1400684B1B6803F007033A689A420CD9654B4B
:104B24003A68D2B21A70634B1B6803F007033A6801
:104B34009A4201D00123B8E07B681B6803F00203AA
:104B4400002B20D07B681B6803F00403002B05D0E6
:104B5400594B9B68584A43F4E05393607B681B6845
:104B640003F00803002B05D0534B9B68524A43F4CF
:104B740060439360504B9B6823F0F0027B689B6812
:104B84004D4913438B607B681B6803F00103002BC2
:104B940044D07B685B68012B07D1474B1B6803F447
:104BA4000033002B19D101237FE07B685B68022B63
:104BB40003D07B685B68032B07D13F4B1B6803F072
:104BC4000073002B09D101236FE03B4B1B6803F0FA
:104BD4000203002B01D1012367E0374B9B6823F0CC
:104BE40003027B685B68344913438B60FDF792F8DA
:104BF400F8600AE0FDF78EF80246FB68D31A41F22A
:104C04008832934201D903234FE02B4B9B6803F076
:104C14000C027B685B689B009A42EBD1254B1B68B6
:104C240003F007033A689A420CD2224B3A68D2B294
:104C34001A70204B1B6803F007033A689A4201D0AC
:104C4400012332E07B681B6803F00403002B08D0C7
:104C5400194B9B6823F4E0527B68DB6816491343C5
:104C64008B607B681B6803F00803002B09D0124B90
:104C74009B6823F460427B681B69DB000E49134385
:104C84008B6000F021F802460B4B9B681B0903F074
:104C94000F030A49CB5C22FA03F3094A1360094B58
:104CA4001B681846FCF7B2FE002318461037BD46B1
:104CB40080BD00BF003C02400038024080770008FD
:104CC40004000020080000202DE9B04F90B000AF90
:104CD40000237B630023FB6300233B630023BB634C
:104CE400594B9B6803F00C03082B0DD0082B00F2E2
:104CF400A180002B02D0042B03D09BE0534BBB6359
:104D04009BE0534BBB6398E04F4B5B6803F03F035E
:104D14007B634D4B5B6803F48003002B28D04A4B24
:104D24005B689B0900223B627A623B6AC3F308001A
:104D34000021474B03FB01F2002300FB03F3134460
:104D4400434AA0FB0212FA620A46BA62FA6A1344A0
:104D5400FB627B6B0022BB61FA61D7E90623D7E9CA
:104D64000A01FBF735FA02460B461346FB6353E090
:104D7400354B5B689B0900223B617A613B69C3F355
:104D8400080A4FF0000B52465B464FF000004FF00C
:104D94000001590141EAD261500102460B46B2EBCF
:104DA4000A0863EB0B094FF000024FF000034FEACF
:104DB400891343EA98634FEA8812B2EB080463EB61
:104DC40009054FF000024FF00003EB0043EA54736F
:104DD400E20014461D4614EB0A033B6045EB0B034B
:104DE4007B604FF000024FF00003D7E900452946ED
:104DF4008B02214643EA915321468A021046194602
:104E04007B6B0022BB60FA60D7E90223FBF7E0F971
:104E140002460B461346FB630B4B5B681B0C03F00B
:104E2400030301335B003B63FA6B3B6BB2FBF3F3AD
:104E3400BB6302E0054BBB6300BFBB6B1846403746
:104E4400BD46BDE8B08F00BF003802400024F40026
:104E540040787D0180B400AF034B1B681846BD4603
:104E64005DF8047B704700BF0400002080B500AFEC
:104E7400FFF7F0FF0246054B9B689B0A03F007030C
:104E84000349CB5C22FA03F3184680BD0038024084
:104E94009077000880B500AFFFF7DCFF0246054BB2
:104EA4009B685B0B03F007030349CB5C22FA03F313
:104EB400184680BD003802409077000880B483B063
:104EC40000AF786039607B680F221A60124B9B68D0
:104ED40003F003027B685A600F4B9B6803F0F002F7
:104EE4007B689A600C4B9B6803F4E0527B68DA6041
:104EF400094B9B68DB0803F4E0527B681A61074B9B
:104F04001B6803F007023B681A6000BF0C37BD46FC
:104F14005DF8047B704700BF00380240003C02404B
:104F240080B582B000AF78607B68002B01D101238B
:104F340041E07B6893F83D30DBB2002B06D17B68FF
:104F4400002283F83C207868FCF71EFB7B68022271
:104F540083F83D207B681A687B6804331946104641
:104F640000F0CAFD7B68012283F846207B68012299
:104F740083F83E207B68012283F83F207B6801226E
:104F840083F840207B68012283F841207B6801225A
:104F940083F842207B68012283F843207B68012246
:104FA40083F844207B68012283F845207B68012232
:104FB40083F83D20002318460837BD4680BD000015
:104FC40080B485B000AF78607B6893F83D30DBB285
:104FD400012B01D001233CE07B68022283F83D20B1
:104FE4007B681B681E4A934218D07B681B68B3F128
:104FF400804F13D07B681B681A4A93420ED07B689B
:105004001B68194A934209D07B681B68174A93426C
:1050140004D07B681B68164A934211D17B681B68D5
:105024009B6803F00703FB60FB68062B10D07B68CA
:105034001B681A687B681B6842F001021A6007E06B
:105044007B681B681A687B681B6842F001021A605F
:10505400002318461437BD465DF8047B704700BF33
:10506400000001400004004000080040000C004023
:105074000040014080B485B000AF78607B6893F84D
:105084003D30DBB2012B01D0012344E07B680222D6
:1050940083F83D207B681B68DA687B681B6842F0F4
:1050A4000102DA607B681B681E4A934218D07B6851
:1050B4001B68B3F1804F13D07B681B681A4A934274
:1050C4000ED07B681B68194A934209D07B681B6821
:1050D400174A934204D07B681B68164A934211D145
:1050E4007B681B689B6803F00703FB60FB68062B67
:1050F40010D07B681B681A687B681B6842F0010249
:105104001A6007E07B681B681A687B681B6842F0BA
:1051140001021A60002318461437BD465DF8047B6B
:10512400704700BF00000140000400400008004038
:10513400000C00400040014080B582B000AF7860B0
:105144007B68002B01D1012341E07B6893F83D305B
:10515400DBB2002B06D17B68002283F83C20786800
:1051640000F039F87B68022283F83D207B681A68D6
:105174007B6804331946104600F0BEFC7B680122AC
:1051840083F846207B68012283F83E207B68012255
:1051940083F83F207B68012283F840207B6801224A
:1051A40083F841207B68012283F842207B68012236
:1051B40083F843207B68012283F844207B68012222
:1051C40083F845207B68012283F83D20002318469C
:1051D4000837BD4680BD80B483B000AF786000BF9F
:1051E4000C37BD465DF8047B7047000080B584B081
:1051F40000AF786039603B68002B09D17B6893F875
:105204003E30DBB2012B14BF01230023DBB222E0CA
:105214003B68042B09D17B6893F83F30DBB2012B48
:1052240014BF01230023DBB215E03B68082B09D12E
:105234007B6893F84030DBB2012B14BF01230023B9
:10524400DBB208E07B6893F84130DBB2012B14BF7A
:1052540001230023DBB2002B01D0012368E03B686B
:10526400002B04D17B68022283F83E2013E03B68C4
:10527400042B04D17B68022283F83F200BE03B68B7
:10528400082B04D17B68022283F8402003E07B686A
:10529400022283F841207B681B6801223968184682
:1052A40000F0D6FE7B681B68234A934207D17B68D3
:1052B4001B685A6C7B681B6842F400425A647B6822
:1052C4001B681D4A934218D07B681B68B3F1804F5A
:1052D40013D07B681B68194A93420ED07B681B6805
:1052E400174A934209D07B681B68164A934204D03C
:1052F4007B681B68144A934211D17B681B689B68C6
:1053040003F00703FB60FB68062B10D07B681B6867
:105314001A687B681B6842F001021A6007E07B6828
:105324001B681A687B681B6842F001021A6000233C
:1053340018461037BD4680BD0000014000040040FF
:1053440000080040000C00400040014080B586B0D9
:1053540000AF786039607B68002B01D1012397E0AE
:105364007B6893F83D30DBB2002B06D17B680022CA
:1053740083F83C207868FCF74DF97B68022283F8B7
:105384003D207B681B689B687A68126823F480431D
:1053940023F0070393607B681A687B68043319461B
:1053A400104600F0A9FB7B681B689B687B617B68E7
:1053B4001B689B693B617B681B681B6AFB603B68DD
:1053C4001B687A6913437B613B6923F4407323F0C0
:1053D40003033B613B689A683B689B691B02134368
:1053E4003A6913433B613B6923F4406323F00C03A4
:1053F4003B613B6923F4704323F0F0033B613B685A
:10540400DA683B68DB691B0213433A6913433B6167
:105414003B681B691A013B681B6A1B0313433A6907
:1054240013433B61FB6823F02203FB60FB6823F01A
:105434008803FB603B685A683B685B691B01134344
:10544400FA681343FB607B681B687A699A607B681F
:105454001B683A699A617B681B68FA681A627B6800
:10546400012283F846207B68012283F83E207B6872
:10547400012283F83F207B68012283F842207B6865
:10548400012283F843207B68012283F83D20002316
:1054940018461837BD4680BD80B584B000AF78602B
:1054A40039607B6893F83E30FB737B6893F83F3038
:1054B400BB737B6893F842307B737B6893F843300B
:1054C4003B733B68002B10D1FB7B012B02D17B7B10
:1054D400012B01D0012369E07B68022283F83E207E
:1054E4007B68022283F8422031E03B68042B10D110
:1054F400BB7B012B02D13B7B012B01D0012355E067
:105504007B68022283F83F207B68022283F84320D1
:105514001DE0FB7B012B08D1BB7B012B05D17B7BE1
:10552400012B02D13B7B012B01D001233EE07B68A0
:10553400022283F83E207B68022283F83F207B68A6
:10554400022283F842207B68022283F843203B68CE
:10555400002B03D03B68042B08D00FE07B681B684A
:1055640001220021184600F073FD16E07B681B68D9
:1055740001220421184600F06BFD0EE07B681B68D5
:1055840001220021184600F063FD7B681B6801229C
:105594000421184600F05CFD00BF7B681B681A6894
:1055A4007B681B6842F001021A600023184610371A
:1055B400BD4680BD80B584B000AF78607B681B6851
:1055C400DB68FB607B681B681B69BB60BB6803F01E
:1055D4000203002B20D0FB6803F00203002B1BD036
:1055E4007B681B686FF002021A617B6801221A77DC
:1055F4007B681B689B6903F00303002B03D0786866
:1056040000F05BFA05E0786800F04DFA786800F085
:105614005EFA7B6800221A77BB6803F00403002B50
:1056240020D0FB6803F00403002B1BD07B681B68AD
:105634006FF004021A617B6802221A777B681B6888
:105644009B6903F44073002B03D0786800F035FAAB
:1056540005E0786800F027FA786800F038FA7B688B
:1056640000221A77BB6803F00803002B20D0FB68E4
:1056740003F00803002B1BD07B681B686FF0080243
:105684001A617B6804221A777B681B68DB6903F064
:105694000303002B03D0786800F00FFA05E0786864
:1056A40000F001FA786800F012FA7B6800221A7799
:1056B400BB6803F01003002B20D0FB6803F0100339
:1056C400002B1BD07B681B686FF010021A617B688B
:1056D40008221A777B681B68DB6903F44073002B8C
:1056E40003D0786800F0E9F905E0786800F0DBF9A8
:1056F400786800F0ECF97B6800221A77BB6803F045
:105704000103002B0CD0FB6803F00103002B07D02E
:105714007B681B686FF001021A617868FBF792FDE1
:10572400BB6803F08003002B0CD0FB6803F08003FC
:10573400002B07D07B681B686FF080021A617868C1
:1057440000F076FDBB6803F04003002B0CD0FB682F
:1057540003F04003002B07D07B681B686FF0400206
:105764001A61786800F0BDF9BB6803F02003002BD0
:105774000CD0FB6803F02003002B07D07B681B6868
:105784006FF020021A61786800F048FD00BF1037FE
:10579400BD4680BD80B586B000AFF860B9607A6060
:1057A4000023FB75FB6893F83C30012B01D10223E5
:1057B400AEE0FB68012283F83C207B680C2B00F2EE
:1057C4009F8001A252F823F00158000805590008EF
:1057D40005590008055900084158000805590008F2
:1057E40005590008055900088358000805590008A0
:1057F4000559000805590008C3580008FB681B68D0
:10580400B968184600F0FEF9FB681B689A69FB68E2
:105814001B6842F008029A61FB681B689A69FB687E
:105824001B6822F004029A61FB681B689969BB68D3
:105834001A69FB681B680A439A6164E0FB681B6889
:10584400B968184600F044FAFB681B689A69FB685B
:105854001B6842F400629A61FB681B689A69FB68E2
:105864001B6822F480629A61FB681B689969BB68B3
:105874001B691A02FB681B680A439A6143E0FB68D0
:105884001B68B968184600F08FFAFB681B68DA6970
:10589400FB681B6842F00802DA61FB681B68DA697E
:1058A400FB681B6822F00402DA61FB681B68D96993
:1058B400BB681A69FB681B680A43DA6123E0FB686A
:1058C4001B68B968184600F0D9FAFB681B68DA69E6
:1058D400FB681B6842F40062DA61FB681B68DA69E2
:1058E400FB681B6822F48062DA61FB681B68D96973
:1058F400BB681B691A02FB681B680A43DA6102E091
:105904000123FB7500BFFB68002283F83C20FB7D6C
:1059140018461837BD4680BD80B584B000AF7860A6
:1059240039600023FB737B6893F83C30012B01D171
:105934000223B4E07B68012283F83C207B680222C6
:1059440083F83D207B681B689B68BB60BB6823F0C1
:105954007703BB60BB6823F47F43BB607B681B6831
:10596400BA689A603B681B68B3F5005F3ED0B3F534
:10597400005F00F28780B3F5805F00F08680B3F5A6
:10598400805F7FD8702B1AD0702B7BD8602B50D0BF
:10599400602B77D8502B3CD0502B73D8402B58D049
:1059A400402B6FD8302B64D0302B6BD8202B60D099
:1059B400202B67D8002B5CD0102B5AD062E07B6878
:1059C40018683B6899683B685A683B68DB6800F074
:1059D4001FFB7B681B689B68BB60BB6843F0770355
:1059E400BB607B681B68BA689A604FE07B68186884
:1059F4003B6899683B685A683B68DB6800F008FBC1
:105A04007B681B689A687B681B6842F480429A60D2
:105A14003CE07B6818683B6859683B68DB681A4659
:105A240000F07CFA7B681B685021184600F0D5FA18
:105A34002CE07B6818683B6859683B68DB681A4649
:105A440000F09BFA7B681B686021184600F0C5FAD9
:105A54001CE07B6818683B6859683B68DB681A4639
:105A640000F05CFA7B681B684021184600F0B5FA28
:105A74000CE07B681A683B681B681946104600F006
:105A8400ACFA03E00123FB7300E000BF7B68012252
:105A940083F83D207B68002283F83C20FB7B18467A
:105AA4001037BD4680BD80B483B000AF786000BFBE
:105AB4000C37BD465DF8047B704780B483B000AFFB
:105AC400786000BF0C37BD465DF8047B704780B436
